:0400000002002B329D
:03000B00020228C6
:0100130032BA
:01001B0032B2
:030023000206478B
:07008400752B00752C0075BF
:07008B002D00752E00E4F5C5
:050092002FF530E4F53C
:0400970031F5327598
:07009B0033B0753404E4F5F5
:0500A20035F536E4F520
:0500A70037F538E4F517
:0500AC0039F53AE4F50E
:0500B1003BF53CE4F505
:0500B6003DF53EE4F5FC
:0500BB0041F542E4F5EF
:0500C00043F544E4F5E6
:0500C50046F547E4F5DB
:0400CA0048F5497537
:0600CE004A00754B0075AD
:0600D4004C00754D0075A3
:0600DA004E00754F007599
:0600E0005000755100758F
:0600E60052007553007585
:0600EC005400755500757B
:0600F20056007557007571
:0600F80058007559007567
:0600FE005A00755B00755D
:060104005C38755DFF751B
:06010A005E30755FFF7519
:0601100060217561FF751E
:0601160062227563FFC2C6
:03011C0000C2011D
:03011F00020026B5
:0500260012012280FE22
:0301220012014582
:08012500E52B6006752B0012AA
:02012D0001735C
:05012F00100002800336
:0301340012067B35
:0601370030010312065323
:08013D001206A21202CA80E0C2
:0E014500758921D28C758A00758CFDC28DD211
:0E015300A975985053892F438920758BFA7532
:0E0161008DFA53877FD28EC28FC298C299D278
:04016F00ACD2AF223D
:0B017300AA508A037C000BBB00010CAB
:08017E00BB0A05BC000280036E
:030186000202234F
:0A018900755000AB518B047D000C93
:04019300BC00010D9E
:08019700BC0605BD0002800357
:03019F0002021E3B
:0A01A200755100AC528C057E000D73
:0401AC00BD00010E83
:0801B000BD0A05BE0002800338
:0301B80002021927
:0A01BB00755200AD538D067F000E53
:0401C500BE00010F68
:0A01C900BE0648BF004575530085CF
:0301D300540A8546
:0301D6000A08759F
:0901D900090074012508FFE4355A
:0B01E20009FEBF040FBE000C7402B544
:0601ED0055077554007572
:0301F30055002292
:0A01F60074012508FEE43509FFBE80
:0A0200000A0CBF0009755400E55513
:04020A0004F5552280
:06020E00E50A04F554228C
:05021400ED04F553228A
:05021900EC04F5522287
:05021E00EB04F5512284
:05022300EA04F5502281
:0C022800C021C0E0C0F0C082C083C00252
:0E023400C003C004C005C006C007C000C00162
:0A024200C0D075D000052FE4B52FE1
:03024C0002053078
:06024F00E533B52F10E5B8
:0602550034B5300BE4F5A6
:04025B002FF53075D6
:05025F002B01752C01CC
:0E026400758CFD120287D0D0D001D000D007DB
:0E027200D006D005D004D003D002D083D082B5
:07028000D0F0D0E0D02132E4
:07028700752D01E4F535F5CA
:01028E003639
:0A028F007406B53505E4B53601220A
:07029900855E82855F83E5AD
:0502A0002DF0AA5CAB8B
:0402A5005DE53524BA
:0C02A90050F8E690074793FC8A828B8394
:0A02B500F0C296D2960535E4B53587
:0302BF00020536FF
:0502C200E52D252DF5DE
:0302C7002D80C5C2
:0802CA00753B01E4F53CE4F58D
:0302D2003DF53EB9
:0A02D5007406B53D05E4B53E0122B4
:0702DF00855E82855F83E567
:0502E6003BF0E53D24A2
:0C02EB0056F88602BA010520B502760024
:0A02F700E53D2456F8E6702D30B501
:0A0301002A76017420B53B06E4B52E
:04030B003C02800D23
:0A030F007404B53B06E4B53C02801F
:0103190002E1
:02031A0080035E
:03031C0012034188
:0A031F00D2AF753B01E4F53CE4F5B4
:030329003DF53E61
:07032C00E53CC53B25E0C5DF
:050333003B33F53C0521
:060338003DE4B53D98050F
:03033E003E80946A
:08034100E4F541F542C2AF856D
:03034900504A8592
:03034C00514B858D
:03034F00524C8588
:03035200534D8583
:03035500544E857E
:03035800554F7589
:02035B002E0072
:07035D00752D01E4F535F5F3
:010364003662
:0A0365007406B53507E4B53603024F
:02036F00043058
:07037100855E82855F83E5D4
:050378002DF0AA5CABB2
:04037D005DE53524E1
:0C0381004AF8E690074793FC8A828B83C1
:0A038D00F07402B54306E4B5440223
:020397008002E2
:020399008005DD
:05039B00E4F543F54408
:0703A000E52E601DE5354567
:0A03A70036600D7401B53506E4B5AB
:0403B100360280028E
:0203B500800ABC
:0A03B700E54345447004C2968054EB
:0703C1007401B52E02802239
:0A03C8007402B53506E4B536028074
:0103D2000D1D
:0A03D3007403B53506E4B536028068
:0103DD00021D
:0203DE00800A93
:0A03E000E54345447004C296802BEB
:0703EA007402B52E0280220F
:0A03F1007404B53506E4B536028049
:0103FB000DF4
:0A03FC007405B53506E4B53602803D
:0104060002F3
:02040700800A69
:0A040900E54345447004C2968002EA
:02041300C2968F
:09041500D2960543E4B54302054B
:01041E004499
:07041F000535E4B5350205C7
:01042600369F
:05042700E52D252DF577
:04042C002D02036535
:08043000753B01E4F53CE4F525
:030438003DF53E51
:0A043B007406B53D06E4B53E0280EC
:010445004076
:07044600855E82855F83E5FE
:05044D003BF0E53D2439
:0C04520056F88602BA010520B5027600BB
:0A045E00E53D2456F8E6700B30B5BA
:07046800087601853B418588
:02046F003C420D
:07047100E53CC53B25E0C599
:050478003B33F53C05DB
:06047D003DE4B53DB905A8
:030483003E80B503
:0A0486007401B54106E4B54202809E
:010490000269
:020491008016D3
:04049300854A5085C1
:030497004B518541
:03049A004C52853C
:03049D004D538537
:0304A0004E548532
:0604A3004F55758CFD228F
:0A04A9007402B54105E4B5420122DA
:0A04B3007404B54106E4B54202806E
:0104BD00023C
:0204BE00800BB1
:0604C000E4F541F542E500
:0504C6002E6002152E5E
:0A04CB007408B54106E4B542028052
:0104D5000323
:0304D6000205A17B
:0804D900E4F541F5427401B5A0
:0404E1002E02803C2B
:0704E5007402B52E028059DC
:0704EC00E52E60030205A1EB
:0904F300AA4A7B000ABA00010BC1
:0804FC00BA0A05BB00028003EF
:0305040002059B52
:0A050700754A00AA4B7B000ABA00F7
:02051100010BDC
:08051300BA0605BB00028003DB
:03051B0002059343
:03051E00754B001A
:09052100AA4C7B000ABA00010B90
:0A052A00BA0A5EBB005B754C00AA24
:080534004D7B000ABA00010B27
:09053C00BA0644BB0041754D00F4
:09054500AA4E7B000ABA00010B6A
:0C054E00BA0410BB000D7402B54F087514
:07055A004E00754F008040C8
:09056100AA4E7B000ABA00010B4E
:0A056A00BA0A0EBB000B754E00E547
:070574004FFA04F54F802649
:08057B00E54EFA04F54E801E66
:08058300E54DFA04F54D801668
:08058B00E54CFA04F54C800E6A
:08059300E54BFA04F54B80066C
:06059B00E54AFA04F54AEE
:0A05A1007410B54106E4B542028073
:0105AB00034C
:0305AC000206271D
:0805AF00E4F541F5427401B5C9
:0405B7002E02801977
:0705BB007402B52E0280203E
:0905C200E52E7061E54A705775E1
:0705CB004A09E54B70487579
:0205D2004B05D7
:0805D400E54C7039754C09E596
:0605DC004D702A754D056B
:0905E200E54E700CE54F70087540
:0705EB004E03754F0280353D
:0805F200E54E700B754E09E5A2
:0705FA004FFA14F54F8026B3
:08060100E54EFA14F54E801ECF
:08060900E54DFA14F54D8016D1
:08061100E54CFA14F54C800ED3
:08061900E54BFA14F54B8006D5
:06062100E54AFA14F54A57
:0A0627007420B54106E4B5420280DC
:0106310003C5
:0306320002035D63
:08063500E4F541F5427402B541
:05063D002E0302035D25
:05064200052E02035D1E
:05064700109902800281
:02064C00800428
:04064E00C298D2007C
:010652003275
:0A0653007408B53706E4B5380280DC
:01065D00029A
:02065E00800515
:05066000E4F537F53858
:0406650030990122A5
:05066900C201E5372489
:08066E0022F886990537E4B576
:04067600370205380A
:01067A00225D
:0A067B007408B53906E4B53A0280B0
:010685000272
:020686008005ED
:05068800E4F539F53A2C
:06068D0085992AE53924DD
:0506930022F8A62A0573
:0606980039E4B53902054A
:01069E003A21
:03069F00D2012263
:0906A200856282856383E0FAB5EC
:0406AB00450280057F
:0506AF00E4F546F547EB
:0806B400856282856383E0F595
:0706BC0045747FB5450EE512
:0806C3004645477008B2977527
:0506CB004601E4F547C3
:0806D00074BFB5450DE5464578
:0806D800477007754601E4F5C7
:0206E0004722AF
:0806E20074DFB5450DE5464546
:0806EA00477007754601E4F5B5
:0206F20047229D
:0806F40074EFB5450DE5464524
:0806FC00477007754601E4F5A3
:0207040047228A
:0807060074F7B5450DE5464509
:08070E00477007754601E4F590
:02071600472278
:0807180074FBB5450CE54645F4
:08072000477006754601E4F57F
:010728004789
:0107290022AD
:05072A00E4F53FF5407D
:0A072F0074C8B53F05E4B54001228F
:07073900053FE4B53FF005A8
:030740004080EC0A
:0A0747003F065B4F666D7D077F6F74
:06005A00E47801F6D8FD78
:080038007900E94400601B7A25
:0500400000900751785B
:030045000075A0A3
:0A00480000E493F2A308B8000205DB
:08005200A0D9F4DAF275A0FF59
:080060007800E84400600A7911
:030068000075A080
:06006B0000E4F309D8FCDB
:080071007800E84400600C79FE
:0B00790000900000E4F0A3D8FCD9FACE
:03002B0075816379
:0A002E00120743E58260030200267A
:040743007582002299
:00000001FF
