:0400000002001332B5
:03000B000201846B
:07006C00E4F508F509E4F5D5
:040073000AF50B750A
:060077000C96E4F50D7586
:06007D000E00750F007576
:060083001000751100756C
:0600890012007513007562
:06008F0014007515387520
:0600950016FF751730751F
:07009B0018FF751900E4F5E0
:0300A2001AF51B31
:0300A50002000E48
:05000E001200A880FEB5
:0300A8001200B98A
:0A00AB00E51460FC751400B2971212
:0400B50000CF80F206
:0E00B900758971D28C758A00758CF0C28DD25B
:0800C7008CD2A9D2AFC297222E
:0B00CF00AA0E8A037C000BBB00010C92
:0800DA00BB0A05BC0002800313
:0300E20002017F99
:0A00E500750E00AB0F8B047D000CBC
:0400EF00BC00010D43
:0800F300BC0605BD00028003FC
:0300FB0002017A85
:0A00FE00750F00AC108C057E000D9C
:04010800BD00010E27
:08010C00BD0A05BE00028003DC
:0301140002017570
:0A011700751000AD118D067F000E7B
:04012100BE00010F0C
:0A012500BE0648BF004575110085B5
:03012F00121E8518
:030132001E1C751B
:090135001D007401251CFFE435D6
:0B013E001DFEBF040FBE000C7402B5D4
:060149001307751200759A
:03014F0013002278
:0A0152007401251CFEE4351DFFBEFC
:0A015C000A0CBF0009751200E5133C
:0401660004F5132267
:06016A00E51E04F512225F
:05017000ED04F5112271
:05017500EC04F510226E
:05017A00EB04F50F226B
:05017F00EA04F50E2268
:0C018400C020C0E0C0F0C082C083C002F8
:0E019000C003C004C005C006C007C000C00107
:0A019E00C0D075D0000508E4B508D4
:0301A80002050944
:0601AB00E50CB5080DE5AE
:0601B1000DB50908E4F59C
:0401B70008F50975C9
:0201BB0014012D
:0E01BD00758CE81201E0D0D0D001D000D00740
:0E01CB00D006D005D004D003D002D083D0825D
:0701D900D0F0D0E0D020328D
:0701E000751901E4F51AF5A1
:0101E7001BFC
:0A01E8007406B51A05E4B51B0122E8
:0701F200851782851883E5E3
:0501F90019F0AA15AB8E
:0401FE0016E51A24C4
:0C0202000EF8E690022793FC8A828B83A2
:0A020E00F0C296D296051AE4B51A64
:0302180002051BC1
:05021B00E5192519F5AD
:030220001980C57D
:0A0227003F065B4F666D7D077F6F99
:06004200E47801F6D8FD90
:080020007900E94400601B7A3D
:05002800009002317898
:03002D000075A0BB
:0A00300000E493F2A308B8000205F3
:08003A00A0D9F4DAF275A0FF71
:080048007800E84400600A7929
:030050000075A098
:0600530000E4F309D8FCF3
:080059007800E84400600C7916
:0B00610000900000E4F0A3D8FCD9FAE6
:03001300758120D4
:0A001600120223E582600302000ECF
:0402230075820022BE
:00000001FF
