:0400000002001332B5
:03000B000201BB34
:07006C0075210075220075EB
:070073002300752400E4F5F1
:05007A0025F526E4F568
:04007F0027F52875C4
:070083002996E4F52AE4F5DB
:05008A002BF52CE4F54C
:05008F002DF52EE4F543
:040094002FF530759F
:0600980031007532007515
:06009E003300753400750B
:0600A40035007536007501
:0600AA00370075380075F7
:0600B0003900753A0075ED
:0600B6003B00753C0075E3
:0600BC003D00753E0075D9
:0600C2003F0075400075CF
:0600C800410075420075C5
:0600CE0043387544FF7584
:0500D40045307546FFF8
:0300D90002000E14
:05000E001200DC80FE81
:0300DC001200F01F
:0A00DF00E5216008752100B29712B8
:0200E90001060E
:0500EB0012025D80EF30
:0E00F000758971D28C758A00758CF0C28DD224
:0800FE008CD2A9D2AFC29722F7
:0B010600AA378A037C000BBB00010C31
:08011100BB0A05BC00028003DB
:030119000201B62A
:0A011C00753700AB388B047D000C32
:04012600BC00010D0B
:08012A00BC0605BD00028003C4
:030132000201B116
:0A013500753800AC398C057E000D12
:04013F00BD00010EF0
:08014300BD0A05BE00028003A5
:03014B000201AC02
:0A014E00753900AD3A8D067F000EF2
:04015800BE00010FD5
:0A015C00BE0648BF0045753A008555
:030166003B0A85CC
:030169000A08750C
:09016C00090074012508FFE435C7
:0B01750009FEBF040FBE000C7402B5B1
:060180003C07753B007511
:030186003C002218
:0A01890074012508FEE43509FFBEED
:0A0193000A0CBF0009753B00E53CB3
:04019D0004F53C2207
:0601A100E50A04F53B2213
:0501A700ED04F53A2211
:0501AC00EC04F539220E
:0501B100EB04F538220B
:0501B600EA04F5372208
:0C01BB00C020C0E0C0F0C082C083C002C1
:0E01C700C003C004C005C006C007C000C001D0
:0A01D500C0D075D0000525E4B52563
:0301DF00020526F0
:0601E200E529B52510E53A
:0601E8002AB5260BE4F528
:0401EE0025F5267558
:0501F20021017522014E
:0E01F700758CE812021AD0D0D001D000D007CB
:0E020500D006D005D004D003D002D083D08222
:07021300D0F0D0E0D0203252
:07021A00752301E4F52BF54B
:010221002CB0
:0A0222007406B52B05E4B52C01228B
:07022C00854582854683E54C
:0502330023F0AA43AB1B
:0402380044E52B244A
:0C023C0037F8E690031093FC8A828B8355
:0A024800F0C296D296052BE4B52B08
:0302520002052C76
:05025500E5232523F55F
:03025A002380C539
:08025D00752D01E4F52EE4F516
:030265002FF53042
:0A0268007406B52F05E4B53001223D
:07027200854582854683E506
:050279002DF0E52F242B
:0C027E003DF88602BA010520B5027600AA
:0A028A00E52F243DF8E6700E30B5B4
:0A0294000B7601852D82852E831262
:02029E0002B5A7
:0702A000E52EC52D25E0C588
:0502A7002D33F52E05CA
:0602AC002FE4B52FB70599
:0302B2003080B3E6
:0C02B500AA82AB83BA2005BB00028006C1
:0602C100BA0447BB004433
:0402C70085373185C1
:0302CB0038328541
:0302CE003933853C
:0302D1003A348537
:0302D4003B358532
:0302D7003C36753D
:0C02DA002400B295E4BA0204BB00010449
:0902E600FCE4BA0104BB000104B0
:0102EF00FA14
:0702F000EA60158531378536
:0302F70032388515
:0302FA0033398510
:0302FD00343A850B
:03030000353B8505
:05030300363CB295221A
:03030800EC60E5C1
:01030B0022CF
:0A0310003F065B4F666D7D077F6FAF
:06004200E47801F6D8FD90
:080020007900E94400601B7A3D
:050028000090031A78AE
:03002D000075A0BB
:0A00300000E493F2A308B8000205F3
:08003A00A0D9F4DAF275A0FF71
:080048007800E84400600A7929
:030050000075A098
:0600530000E4F309D8FCF3
:080059007800E84400600C7916
:0B00610000900000E4F0A3D8FCD9FAE6
:03001300758146AE
:0A00160012030CE582600302000EE5
:04030C0075820022D4
:00000001FF
