:0400000002001332B5
:03000B000201BC33
:07006C0075210075220075EB
:070073002300752400E4F5F1
:05007A0025F526E4F568
:04007F0027F52875C4
:070083002996E4F52AE4F5DB
:05008A002BF52CE4F54C
:05008F002DF52EE4F543
:050094002FF530E4F53A
:0400990033F5347592
:06009D0035007536007508
:0600A300370075380075FE
:0600A9003900753A0075F4
:0600AF003B00753C0075EA
:0600B5003D00753E0075E0
:0600BB003F0075400075D6
:0600C100410075420075CC
:0600C700430075440075C2
:0600CD00450075460075B8
:0600D30047387548FF7577
:0500D9004930754AFFEB
:0300DE0002000E0F
:05000E001200E180FE7C
:0300E1001200F515
:0A00E400E5216008752100B29712B3
:0200EE00010708
:0500F00012025E80EF2A
:0E00F500758971D28C758A00758CF0C28DD21F
:04010300A9D2AF22AC
:0B010700AA3B8A037C000BBB00010C2C
:08011200BB0A05BC00028003DA
:03011A000201B728
:0A011D00753B00AB3C8B047D000C29
:04012700BC00010D0A
:08012B00BC0605BD00028003C3
:030133000201B214
:0A013600753C00AC3D8C057E000D09
:04014000BD00010EEF
:08014400BD0A05BE00028003A4
:03014C000201AD00
:0A014F00753D00AD3E8D067F000EE9
:04015900BE00010FD4
:0A015D00BE0648BF0045753E008550
:030167003F0A85C7
:03016A000A08750B
:09016D00090074012508FFE435C6
:0B01760009FEBF040FBE000C7402B5B0
:060181004007753F007508
:0301870040002213
:0A018A0074012508FEE43509FFBEEC
:0A0194000A0CBF0009753F00E540AA
:04019E0004F5402202
:0601A200E50A04F53F220E
:0501A800ED04F53E220C
:0501AD00EC04F53D2209
:0501B200EB04F53C2206
:0501B700EA04F53B2203
:0C01BC00C020C0E0C0F0C082C083C002C0
:0E01C800C003C004C005C006C007C000C001CF
:0A01D600C0D075D0000525E4B52562
:0301E000020526EF
:0601E300E529B52510E539
:0601E9002AB5260BE4F527
:0401EF0025F5267557
:0501F30021017522014D
:0E01F800758CE812021BD0D0D001D000D007C9
:0E020600D006D005D004D003D002D083D08221
:07021400D0F0D0E0D0203251
:07021B00752301E4F52BF54A
:010222002CAF
:0A0223007406B52B05E4B52C01228A
:07022D00854982854A83E543
:0502340023F0AA47AB16
:0402390048E52B2445
:0C023D003BF8E69005C693FC8A828B8398
:0A024900F0C296D296052BE4B52B07
:0302530002052C75
:05025600E5232523F55E
:03025B002380C538
:08025E00752D01E4F52EE4F515
:030266002FF53041
:0A0269007406B52F05E4B53001223C
:07027300854982854A83E5FD
:05027A002DF0E52F242A
:0C027F0041F88602BA010520B5027600A5
:0A028B00E52F2441F8E6702D30B590
:0A0295002A76017420B52D06E4B5A9
:04029F002E02800D9E
:0A02A3007404B52D06E4B52E0280A8
:0102AD00024E
:0202AE008003CB
:0302B0001202D562
:0A02B300D2AF752D01E4F52EE4F53D
:0302BD002FF530EA
:0702C000E52EC52D25E0C568
:0502C7002D33F52E05AA
:0602CC002FE4B52F980598
:0302D200308094E5
:0802D500E4F533F534C2AF85F6
:0302DD003B358529
:0302E0003C368524
:0302E3003D37851F
:0302E6003E38851A
:0302E9003F398515
:0302EC00403A7520
:0202EF002400E9
:0702F100752301E4F52BF574
:0102F8002CD9
:0A02F9007406B52B07E4B52C0302D0
:02030300039560
:07030500854982854A83E56A
:05030C0023F0AA47AB3D
:0403110048E52B246C
:0C03150035F8E69005C693FC8A828B83C5
:0A032100F0C296E5246016E52B45B6
:0A032B002C600D7401B52B06E4B53B
:040335002C02800214
:0203390080033F
:03033B001205A9FF
:07033E007401B52402801BCD
:0A0345007402B52B06E4B52C02800B
:01034F000DA0
:0A0350007403B52B06E4B52C0280FF
:01035A0002A0
:02035B0080031D
:03035D001205A9DD
:070360007402B52402801BAA
:0A0367007404B52B06E4B52C0280E7
:010371000D7E
:0A0372007405B52B06E4B52C0280DB
:01037C00027E
:02037D008003FB
:03037F001205A9BB
:09038200D296052BE4B52B02050F
:01038B002C45
:05038C00E5232523F527
:04039100230202F948
:08039500752D01E4F52EE4F5DD
:03039D002FF53009
:0A03A0007406B52F06E4B5300280A4
:0103AA004012
:0703AB00854982854A83E5C4
:0503B2002DF0E52F24F1
:0C03B70041F88602BA010520B50276006C
:0A03C300E52F2441F8E6700B30B579
:0703CD00087601852D338540
:0203D4002E34C5
:0703D600E52EC52D25E0C551
:0503DD002D33F52E0593
:0603E2002FE4B52FB90560
:0303E8003080B5AD
:0A03EB007401B53306E4B534028056
:0103F5000205
:0203F600801372
:0403F80085353B8587
:0303FC00363C8507
:0303FF00373D8502
:03040200383E85FC
:03040500393F85F7
:030408003A402255
:0A040B007402B53305E4B534012294
:0A0415007404B53306E4B534028028
:01041F0002DA
:02042000800B4F
:06042200E4F533F534E5BA
:05042800246002152410
:0A042D007408B53306E4B53402800C
:0104370003C1
:03043800020503B7
:08043B00E4F533F5347401B55A
:040443002402803CD3
:070447007402B52402805984
:07044E00E524600302050331
:09045500AA357B000ABA00010B74
:08045E00BA0A05BB000280038D
:030466000204FD90
:0A046900753500AA367B000ABA00C0
:02047300010B7B
:08047500BA0605BB000280037A
:03047D000204F581
:03048000753600CE
:09048300AA377B000ABA00010B44
:0A048C00BA0A5EBB005B753700AAD8
:08049600387B000ABA00010BDB
:09049E00BA0644BB0041753800A8
:0904A700AA397B000ABA00010B1E
:0C04B000BA0410BB000D7402B53A0875C8
:0704BC003900753A00804091
:0904C300AA397B000ABA00010B02
:0A04CC00BA0A0EBB000B753900E5FB
:0704D6003AFA04F53A802612
:0804DD00E539FA04F539801E2F
:0804E500E538FA04F538801631
:0804ED00E537FA04F537800E33
:0804F500E536FA04F536800635
:0604FD00E535FA04F535B7
:0A0503007410B53306E4B53402802D
:01050D0003EA
:03050E000205895A
:08051100E4F533F5347401B583
:04051900240280191F
:07051D007402B524028020E6
:09052400E5247061E5357057759E
:07052D003509E53670487541
:0205340036058A
:08053600E5377039753709E55E
:06053E0038702A75380533
:09054400E539700CE53A70087508
:07054D003903753A02803505
:08055400E539700B753909E56A
:07055C003AFA14F53A80267B
:08056300E539FA14F539801E98
:08056B00E538FA14F53880169A
:08057300E537FA14F537800E9C
:08057B00E536FA14F53680069E
:06058300E535FA14F53520
:0A0589007420B53306E4B534028097
:010593000364
:030594000202F16F
:08059700E4F533F5347402B5FC
:05059F0024030202F13B
:0505A40005240202F134
:0505A900E4F531F5321C
:0A05AE0074C8B53105E4B53201222E
:0705B8000531E4B531F00547
:0305BF003280EC9B
:0A05C6003F065B4F666D7D077F6FF7
:06004200E47801F6D8FD90
:080020007900E94400601B7A3D
:05002800009005D078F6
:03002D000075A0BB
:0A00300000E493F2A308B8000205F3
:08003A00A0D9F4DAF275A0FF71
:080048007800E84400600A7929
:030050000075A098
:0600530000E4F309D8FCF3
:080059007800E84400600C7916
:0B00610000900000E4F0A3D8FCD9FAE6
:0300130075814AAA
:0A0016001205C2E582600302000E2D
:0405C200758200221C
:00000001FF
