:03000000020008F3
:070061007508807509FF75A9
:060068000A81750BFF7513
:07006E000C82750DFFE4F5A3
:030075000EF50F76
:0300780002000380
:0500030012008780FEE1
:0A007B00850C82850D83E0FA20E772
:02008500F52262
:070087001200E085088285EC
:09008E0009837406F01200E085FC
:090097000882850983743BF01214
:0600A00000E085088285E6
:0900A6000983740FF01200E085DB
:0900AF0008828509837414F01223
:0600B80000E085088285CE
:0900BE0009837401F01200E085D1
:0900C7000A82850B837441F012DA
:0600D00000E0850A8285B4
:0800D6000B837442F01200E0FC
:0200DE0080FEA2
:0A00E000850C82850D83E0FA7B8811
:0200EA007C1385
:0B00EC00EB4C70071BBBFFF81C80F5FD
:0400F7007B887C1373
:0B00FB00EB4C70071BBBFFF81C80F5EE
:0B01060074805AFBBB800A850C8285C8
:060111000D83E0FA80EF0F
:0101170022C5
:06003700E47801F6D8FD9B
:080015007900E94400601B7A48
:05001D000090011C78B9
:030022000075A0C6
:0A00250000E493F2A308B8000205FE
:08002F00A0D9F4DAF275A0FF7C
:08003D007800E84400600A7934
:030045000075A0A3
:0600480000E4F309D8FCFE
:08004E007800E84400600C7921
:0B00560000900000E4F0A3D8FCD9FAF1
:0300080075810FF0
:0A000B00120118E5826003020003F1
:0401180075820022CA
:00000001FF
