:0400000002002B329D
:03000B000202519D
:0100130032BA
:01001B0032B2
:0300230002066D65
:0700840075220075230075D1
:06008B002400752500753C
:0600910026007527007532
:0600970028007529007528
:06009D002B00752C00751C
:0700A3002D00752E00E4F5AD
:0500AA002FF530E4F524
:0400AF0031F5327580
:0700B30033B0753404E4F5DD
:0500BA0035F536E4F508
:0500BF0037F538E4F5FF
:0500C40039F53AE4F5F6
:0500C9003BF53CE4F5ED
:0500CE003DF53EE4F5E4
:0500D30041F542E4F5D7
:0500D80043F544E4F5CE
:0500DD0046F547E4F5C3
:0400E20048F549751F
:0600E6004A00754B007595
:0600EC004C00754D00758B
:0600F2004E00754F007581
:0600F80050007551007577
:0600FE005200755300756D
:0601040054007555007562
:06010A0056007557007558
:060110005800755900754E
:060116005A00755B007544
:06011C005C38755DFF7503
:060122005E30755FFF7501
:0601280060217561FF7506
:06012E0062227563FFC2AE
:0301340000C20105
:030137000200269D
:0500260012013A80FE0A
:03013A0012016E41
:08013D00E52B6006752B001292
:02014500019C1B
:0C014700E522FA3395E0FBEA24D0FAEB45
:0B01530034FFFBBA0105BB0002B297AD
:05015E00100002800307
:030163001206A1E0
:080166001206C81202F380CF5B
:0E016E00758971D28C758A00758CFDC28DD298
:0E017C00A975985053892F438920758BFD7506
:0E018A008DFD53877FD28EC28FC298C299D24C
:04019800ACD2AF2214
:0B019C00AA508A037C000BBB00010C82
:0801A700BB0A05BC0002800345
:0301AF0002024CFD
:0A01B200755000AB518B047D000C6A
:0401BC00BC00010D75
:0801C000BC0605BD000280032E
:0301C800020247E9
:0A01CB00755100AC528C057E000D4A
:0401D500BD00010E5A
:0801D900BD0A05BE000280030F
:0301E100020242D5
:0A01E400755200AD538D067F000E2A
:0401EE00BE00010F3F
:0A01F200BE0648BF004575530085A6
:0301FC00540A851D
:0301FF000A087576
:09020200090074012508FFE43530
:0B020B0009FEBF040FBE000C7402B51A
:0602160055077554007548
:03021C0055002268
:0A021F0074012508FEE43509FFBE56
:0A0229000A0CBF0009755400E555EA
:0402330004F5552257
:06023700E50A04F5542263
:05023D00ED04F5532261
:05024200EC04F552225E
:05024700EB04F551225B
:05024C00EA04F5502258
:0C025100C021C0E0C0F0C082C083C00229
:0E025D00C003C004C005C006C007C000C00139
:0A026B00C0D075D000052FE4B52FB8
:030275000205304F
:06027800E533B52F10E58F
:06027E0034B5300BE4F57D
:040284002FF53075AD
:050288002B01752C01A3
:0E028D00758CFD1202B0D0D0D001D000D00789
:0E029B00D006D005D004D003D002D083D0828C
:0702A900D0F0D0E0D02132BB
:0702B000752D01E4F535F5A1
:0102B7003610
:0A02B8007406B53505E4B5360122E1
:0702C200855E82855F83E584
:0502C9002DF0AA5CAB62
:0402CE005DE5352491
:0C02D20050F8E690076D93FC8A828B8345
:0A02DE00F0C296D2960535E4B5355E
:0302E800020536D6
:0502EB00E52D252DF5B5
:0302F0002D80C599
:0802F300753B01E4F53CE4F564
:0302FB003DF53E90
:0A02FE007406B53D05E4B53E01228B
:07030800855E82855F83E53D
:05030F003BF0E53D2478
:0C03140056F88602BA010520B5027600FA
:0A032000E53D2456F8E6702D30B5D7
:0A032A002A76017420B53B06E4B505
:040334003C02800DFA
:0A0338007404B53B06E4B53C0280F6
:0103420002B8
:02034300800335
:0303450012036A36
:0A034800D2AF753B01E4F53CE4F58B
:030352003DF53E38
:07035500E53CC53B25E0C5B6
:05035C003B33F53C05F8
:060361003DE4B53D9805E6
:030367003E809441
:08036A00E4F541F542C2AF8544
:03037200504A8569
:03037500514B8564
:03037800524C855F
:03037B00534D855A
:03037E00544E8555
:03038100554F7560
:020384002E0049
:07038600752D01E4F535F5CA
:01038D003639
:0A038E007406B53507E4B536030226
:02039800045906
:07039A00855E82855F83E5AB
:0503A1002DF0AA5CAB89
:0403A6005DE53524B8
:0C03AA004AF8E690076D93FC8A828B8372
:0A03B600F07402B54306E4B54402FA
:0203C0008002B9
:0203C2008005B4
:0503C400E4F543F544DF
:0703C900E52E601DE535453E
:0A03D00036600D7401B53506E4B582
:0403DA003602800265
:0203DE00800A93
:0A03E000E54345447004C2968054C2
:0703EA007401B52E02802210
:0A03F1007402B53506E4B53602804B
:0103FB000DF4
:0A03FC007403B53506E4B53602803F
:0104060002F3
:02040700800A69
:0A040900E54345447004C296802BC1
:070413007402B52E028022E5
:0A041A007404B53506E4B53602801F
:010424000DCA
:0A0425007405B53506E4B536028013
:01042F0002CA
:02043000800A40
:0A043200E54345447004C2968002C1
:02043C00C29666
:09043E00D2960543E4B543020522
:010447004470
:070448000535E4B53502059E
:01044F003676
:05045000E52D252DF54E
:040455002D02038EE3
:08045900753B01E4F53CE4F5FC
:030461003DF53E28
:0A0464007406B53D06E4B53E0280C3
:01046E00404D
:07046F00855E82855F83E5D5
:050476003BF0E53D2410
:0C047B0056F88602BA010520B502760092
:0A048700E53D2456F8E6700B30B591
:07049100087601853B41855F
:020498003C42E4
:07049A00E53CC53B25E0C570
:0504A1003B33F53C05B2
:0604A6003DE4B53DB9057F
:0304AC003E80B5DA
:0A04AF007401B54106E4B542028075
:0104B9000240
:0204BA008013AD
:0404BC00854A508598
:0304C0004B518518
:0304C3004C528513
:0304C6004D53850E
:0304C9004E548509
:0304CC004F552267
:0A04CF007402B54105E4B5420122B4
:0A04D9007404B54106E4B542028048
:0104E3000216
:0204E400800B8B
:0604E600E4F541F542E5DA
:0504EC002E6002152E38
:0A04F1007408B54106E4B54202802C
:0104FB0003FD
:0304FC000205C72F
:0804FF00E4F541F5427401B57A
:040507002E02803C04
:07050B007402B52E028059B5
:07051200E52E60030205C79E
:09051900AA4A7B000ABA00010B9A
:08052200BA0A05BB00028003C8
:03052A000205C106
:0A052D00754A00AA4B7B000ABA00D1
:02053700010BB6
:08053900BA0605BB00028003B5
:030541000205B9F7
:03054400754B00F4
:09054700AA4C7B000ABA00010B6A
:0A055000BA0A5EBB005B754C00AAFE
:08055A004D7B000ABA00010B01
:09056200BA0644BB0041754D00CE
:09056B00AA4E7B000ABA00010B44
:0C057400BA0410BB000D7402B54F0875EE
:070580004E00754F008040A2
:09058700AA4E7B000ABA00010B28
:0A059000BA0A0EBB000B754E00E521
:07059A004FFA04F54F802623
:0805A100E54EFA04F54E801E40
:0805A900E54DFA04F54D801642
:0805B100E54CFA04F54C800E44
:0805B900E54BFA04F54B800646
:0605C100E54AFA04F54AC8
:0A05C7007410B54106E4B54202804D
:0105D1000326
:0305D20002064DD1
:0805D500E4F541F5427401B5A3
:0405DD002E02801951
:0705E1007402B52E02802018
:0905E800E52E7061E54A705775BB
:0705F1004A09E54B70487553
:0205F8004B05B1
:0805FA00E54C7039754C09E570
:060602004D702A754D0544
:09060800E54E700CE54F70087519
:070611004E03754F02803516
:08061800E54E700B754E09E57B
:070620004FFA14F54F80268C
:08062700E54EFA14F54E801EA9
:08062F00E54DFA14F54D8016AB
:08063700E54CFA14F54C800EAD
:08063F00E54BFA14F54B8006AF
:06064700E54AFA14F54A31
:0A064D007420B54106E4B5420280B6
:01065700039F
:0306580002038614
:08065B00E4F541F5427402B51B
:050663002E03020386D6
:05066800052E020386CF
:05066D0010990280025B
:02067200800402
:04067400C298D20056
:01067800324F
:0A0679007408B53706E4B5380280B6
:010683000274
:020684008005EF
:05068600E4F537F53832
:04068B00309901227F
:05068F00C201E5372463
:0806940022F886990537E4B550
:04069C0037020538E4
:0106A0002237
:0A06A1007408B53906E4B53A02808A
:0106AB00024C
:0206AC008005C7
:0506AE00E4F539F53A06
:0606B30085992AE53924B7
:0506B90022F8A62A054D
:0606BE0039E4B539020524
:0106C4003AFB
:0306C500D201223D
:0906C800856282856383E0FAB5C6
:0406D1004502800559
:0506D500E4F546F547C5
:0806DA00856282856383E0F56F
:0706E20045747FB5450EE5EC
:0806E9004645477008B2977501
:0506F1004601E4F5479D
:0806F60074BFB5450DE5464552
:0806FE00477007754601E4F5A1
:02070600472288
:0807080074DFB5450DE546451F
:08071000477007754601E4F58E
:02071800472276
:08071A0074EFB5450DE54645FD
:08072200477007754601E4F57C
:02072A00472264
:08072C0074F7B5450DE54645E3
:08073400477007754601E4F56A
:02073C00472252
:08073E0074FBB5450CE54645CE
:08074600477006754601E4F559
:01074E004763
:01074F002287
:05075000E4F53FF54057
:0A07550074C8B53F05E4B540012269
:07075F00053FE4B53FF00582
:030766004080ECE4
:0A076D003F065B4F666D7D077F6F4E
:06005A00E47801F6D8FD78
:080038007900E94400601B7A25
:05004000009007777835
:030045000075A0A3
:0A00480000E493F2A308B8000205DB
:08005200A0D9F4DAF275A0FF59
:080060007800E84400600A7911
:030068000075A080
:06006B0000E4F309D8FCDB
:080071007800E84400600C79FE
:0B00790000900000E4F0A3D8FCD9FACE
:03002B0075816379
:0A002E00120769E582600302002654
:040769007582002273
:00000001FF
