:0400000002002B329D
:03000B000201AA45
:0100130032BA
:01001B0032B2
:030023000205FFD4
:0700840075230075240075CF
:06008B002500E4F526F556
:05009100277528007531
:060096002900E4F52AF543
:05009C002B753B00750F
:0600A1003C00E4F53EF511
:0500A7003F75400075EB
:0600AC00410075420075E1
:0600B200430075440075D7
:0600B800450075460075CD
:0600BE00470075480075C3
:0600C4004900754A0075B9
:0600CA004B00754C0075AF
:0600D0004D00754E0075A5
:0600D6004F387550FF7564
:0600DC0051307552FF7562
:0600E20053227554FF7566
:0600E80055807556FF75FE
:0600EE0057817558FF75F3
:0600F4005982755AFF75E8
:0600FA005B00755C00755F
:060100005D40755E007514
:060106005F00756000754A
:06010C006100756200C2F3
:0401120000C201C264
:0401160002C203D24C
:04011A0004C205C254
:04011E0006C207C24C
:0101220008D4
:03012300020026B1
:050026001205C480FE7C
:07012600752401752800C2D9
:01012D0005CC
:08012E007440B524030201A591
:0701360030034020023DE50B
:08013D002860057401B5280AD1
:08014500E52570067524047520
:02014D00280286
:07014F007402B528028005CF
:050156007403B5280B45
:09015B007401B525067524107528
:0201640028046D
:070166007404B528028005B6
:05016D007405B5280730
:070172007402B52502802C88
:09017900D296855182855283E57E
:0501820024F0AA4FABC0
:0401870050E52824F3
:0C018B0047F8E69010B993FC8A828B8341
:08019700F0C2960528E52425BD
:04019F0024F524021D
:0201A300012E2B
:0501A500D296D20522F4
:0C01AA00C022C0E0C0F0C082C083C002D0
:0E01B600C003C004C005C006C007C000C001E1
:0A01C400C0D075D0000526E4B52672
:0301CE0002052700
:0A01D10074B0B5260E7404B52709BA
:0601DB00E4F526F527B251
:0301E10002D2083F
:0901E400758CFD300403120126A4
:0E01ED00D0D0D001D000D007D006D005D0046D
:0D01FB00D003D002D083D082D0F0D0E0D06D
:020208002232A0
:0E020A00758921D28C758A00758CFDC28DD24B
:0E021800A975985053892F438920758BFA756C
:0E0226008DFA53877FD28EC28FD2ACD2AF1228
:0602340008C28555828519
:09023A0056837406F01208C28517
:090243005582855683743BF012CC
:06024C0008C28555828501
:090252005683740FF01208C285F6
:09025B0055828556837414F012DB
:0602640008C285558285E9
:08026A0056837401F00208C282
:07027200AA47BA090280034C
:0302790002031667
:0A027C00754700AB488B047D000CB1
:04028600BC00010DAA
:08028A00BC0605BD0002800363
:0302920002031153
:0A029500754800AC498C057E000D91
:04029F00BD00010E8F
:0802A300BD0A05BE0002800344
:0302AB0002030C3F
:0A02AE00754900AD4A8D067F000E71
:0402B800BE00010F74
:0A02BC00BE0648BF0045754A0085E4
:0302C6004B0A855B
:0302C9000A0875AB
:0902CC00090074012508FFE43566
:0B02D50009FEBF040FBE000C7402B550
:0602E0004C07754B007590
:0302E6004C0022A7
:0A02E90074012508FEE43509FFBE8C
:0A02F3000A0CBF0009754B00E54C32
:0402FD0004F54C2296
:06030100E50A04F54B22A1
:05030700ED04F54A229F
:05030C00EC04F549229C
:05031100EB04F5482299
:05031600EA04F5472296
:04031B00D20385473D
:04031F0041AA488A1D
:0403230042AB498B15
:0403270043AC4A8C0D
:04032B0044AD4B8D05
:04032F0045AE4C8EFD
:0503330046752500E500
:070338004704FF8F470A8A0A
:08033F0048EF14F547EA14F53C
:06034700480B8B490C8CF1
:08034D004AEB14F549EC14F52C
:060355004A0D8D4B0E8ED7
:08035B004CED14F54BEE14F516
:010363004C4D
:05036400D204754E00FB
:0A03690074E2254E4004054E80F6B4
:06037300C20475290175AA
:020379005B0027
:07037B007406B55B0280E28D
:070382003005F6855182856C
:060389005283E529F0E5B6
:09038F004D605F7401554DFAB593
:08039800290620B503534DFEB8
:0A03A0007402554DFAB5290620B588
:0403AA0003534DFDAF
:0A03AE007404554DFAB5290620B578
:0403B80003534DFBA3
:0A03BC007408554DFAB5290620B566
:0403C60003534DF799
:0A03CA007410554DFAB5290620B550
:0403D40003534DEF93
:0A03D8007420554DFAB52902800388
:0303E2000205858C
:0603E50030B5030205859E
:0603EB00534DDF02058501
:0A03F1007404B5290C30B509754DF0
:0703FB0004E5256002152551
:070402007408B52902800314
:030409000204B634
:06040C0020B5030204B656
:0A041200754D08E52570277409B543
:09041C0047077405B54802800D84
:07042500740AB547028006CE
:06042C00E547FA04F54764
:0A043200740AB54709E548FA04F51D
:04043C0048754700B8
:0A0440007401B525307409B54907B1
:07044A007405B54A0280169B
:0A045100740AB5490BE54AFA04F5F8
:06045B004A75490080060D
:06046100E549FA04F5492B
:0A046700740AB54909E54AFA04F5E4
:040471004A7549007F
:0A0475007402B5253C7403B54B0773
:07047F007402B54C0280225B
:0A0486007403B54B077402B54C0275
:020490008016D4
:0A049200740AB54B0BE54CFA04F5B3
:06049C004C754B008006C8
:0604A200E54BFA04F54BE6
:0A04A800740AB54B09E54CFA04F59F
:0404B2004C754B003A
:0A04B6007410B5296B30B568754D60
:0A04C00010E525701DE5487004E505
:0304CA0047601573
:0804CD00E547700B754709E5D6
:0704D50048FA14F548800607
:0604DC00E547FA14F547A4
:0A04E2007401B5251DE54A7004E51C
:0304EC004960154F
:0804EF00E549700B754909E5B0
:0704F7004AFA14F54A8006E1
:0604FE00E549FA14F5497E
:0A0504007402B5251DE54C7004E5F6
:03050E004B60152A
:08051100E54B700B754B09E589
:070519004CFA14F54C8006BA
:06052000E54BFA14F54B57
:0A0526007401B5291830B515754DA4
:0B05300001758A00758CFDE4F526F5CE
:04053B0027C203D2FE
:04053F0004C20822C8
:0A0543007402B5292930B526754D64
:05054D00028541478515
:0305520042488597
:0305550043498592
:03055800444A858D
:03055B00454B8588
:09055E00464C758CFDE4F58AF5AC
:0405670026F527D27C
:04056B0004C203C201
:02056F00082260
:0A0571007420B5290F30B50C754D4C
:08057B00207402B52502800284
:0205830005254C
:05058500E5292529F520
:04058A0029055B02E2
:02058E00037BED
:06059000752901755B00F6
:060596007406B55B0122B2
:07059C00855182855283E5C1
:0905A30029F07404B52902800559
:0505AC007420B52909CF
:0705B10030B50685294D124B
:0205B800031B23
:0505BA00E5292529F5EB
:0505BF0029055B80D25C
:0605C40012020A120837C2
:0705CA001206801206D11099
:0405D10000028003A1
:0305D500120642C9
:0605D80030010312060BC6
:0505DE0010080280146A
:0705E300E53C600D0523E576
:0805EA002320E006120F0612A7
:0205F2000837C8
:0305F4001202727E
:0805F70012086A12059080CB86
:0505FF001099028002CA
:02060400800470
:04060600C298D200C4
:01060A0032BD
:04060B0030990122FF
:06060F00752A01E4F52B41
:0A061500742DB52A077401B52B02FD
:02061F00800A4F
:07062100052AE4B52AEE05ED
:030628002B80EA3A
:05062B00C201E53B24C3
:090630002CF88699053B7408B50D
:060639003B0612083775B4
:02063F003B007E
:010641002296
:050642000523E53C2446
:090647002CF8A699053C740CB5D1
:060650003C06120F061229
:02065600083763
:0A0658007445B52C227444B52D1D25
:0A0662007449B52E187454B52F1317
:0A066C00740DB5300E740AB53109A3
:07067600120AE412031B024B
:02067D0008373C
:01067F002258
:0A0680002006487447B52C4374456A
:0A068A00B52D3E7454B52E39740DE1
:0A069400B52F34740AB5302F74300E
:07069E002547F533743025F8
:0406A50048F532756D
:0706A900312E74302549F5E4
:0606B000307430254AF50C
:0706B6002F752E2E74302574
:0606BD004BF52D74302501
:0406C3004CF52CD2F4
:0406C700061208D33C
:0506CB00300602D2011F
:0106D0002207
:0706D1007453B52C028001F7
:0106D80022FF
:0706D9007445B52D028001FC
:0106E00022F7
:0706E1007454B52E028001E4
:0106E80022EF
:0C06E900AA2F8A037C00EB24D0FDEC3427
:0606F500FFFE30E70122C8
:0E06FB00EB24D0FBEC34FFFCC374029B748034
:0A0709008CF063F08095F05001229F
:0C071300AB308B047D00EC24D0FEED34F4
:06071F00FFFF30E701229C
:0E072500EC24D0FCED34FFFDC374099C7480FD
:0A0733008DF063F08095F050012274
:07073D00742EB531028001AA
:010744002292
:0C074500C003AC328C057E00ED24D0FF18
:09075100EE34FFD00330E7012271
:0E075A00ED24D0FDEE34FFFEC374059D7480C7
:0A0768008EF063F08095F05001223E
:06077200C004853363AEF4
:0C077800637F00EE24D0EF34FFFDD004BE
:0407840030E7012237
:0E078800EE24D0FEEF34FFFFC374099E748090
:0A0796008FF063F08095F05001220F
:0707A000742EB53402800144
:0107A700222F
:0607A800C004853564AEBB
:0C07AE00647F00EE24D0EF34FFFDD00487
:0407BA0030E7012201
:0E07BE00EE24D0FEEF34FFFFC374059E74805E
:0C07CC008FF063F08095F04061C0048560
:0307D8003665AED5
:0C07DB00657F00EE24D0EF34FFFDD00459
:0E07E70020E74CEE24D0FEEF34FFFFC3740970
:0E07F5009E74808FF063F08095F04035EA240A
:0A080300D0F54CEB24D0F54BEC24AB
:08080D00D0F54AE56324D0F5A3
:0608150049E56424D0F562
:06081B0048E56524D0F55C
:0508210047120CF51266
:0B0826000837758CFDE4F58AF526F517
:0408310027D204C204
:0108350008BA
:01083600229F
:07083700752C2D752D2D75A8
:06083E002E2D752F2D7513
:06084400302D75312D7509
:06084A00322D75342D75FE
:06085000332D75352D75F6
:06085600362D75372D75EB
:06085C00382D7523007524
:060862003C00753B00C2E2
:02086800062266
:09086A00855382855483E0FAB540
:040873003D028002C0
:02087700C207B6
:08087900855382855483E0F5EC
:070881003D74DFB53D2720A7
:0A0888000724AA5F7B001ABAFF01E3
:010892001B4A
:0C089300AC5E7D00C3EC9AED64808BF03D
:0C089F0063F08095F05005055E120FF12B
:0308AB00D207224F
:0908AE0074EFB53D0E20070BD2DA
:0608B70007E55E60051577
:0408BD005E020FF1D7
:0108C1002214
:0A08C200855982855A83E0FA53023B
:0608CC0080BA800280F0FA
:0108D2002203
:0708D300755E00755C007505
:0608DA005D401208C2851A
:0908E00057828558837447F01219
:0608E90008C2855C828557
:0908EF005D837447F0055CE4B57B
:0408F8005C02055D3C
:0A08FC008557828558837445F01279
:0609060008C2855C828539
:09090C005D837445F0055CE4B55F
:040915005C02055D1E
:0A0919008557828558837454F0124C
:0609230008C2855C82851C
:090929005D837454F0055CE4B533
:040932005C02055D01
:0A0936008557828558837420F01263
:0609400008C2855C8285FF
:090946005D837420F0055CE4B54A
:04094F005C02055DE4
:0A0953008557828558837420F01246
:06095D0008C2855C8285E2
:090963005D837420F0055CE4B52D
:04096C005C02055DC7
:0A0970008557828558837420F01229
:06097A0008C2855C8285C5
:090980005D837420F0055CE4B510
:040989005C02055DAA
:0A098D008557828558837420F0120C
:0609970008C2855C8285A8
:09099D005D837420F0055CE4B5F3
:0409A6005C02055D8D
:0A09AA008557828558837420F012EF
:0609B40008C2855C82858B
:0909BA005D837420F0055CE4B5D6
:0409C3005C02055D70
:0A09C7008557828558837420F012D2
:0609D10008C2855C82856E
:0909D7005D837420F0055CE4B5B9
:0409E0005C02055D53
:0A09E4008557828558837420F012B5
:0609EE0008C2855C828551
:0909F4005D837420F0055CE4B59C
:0409FD005C02055D36
:0A0A01008557828558837420F01297
:060A0B0008C2855C828533
:090A11005D837420F0055CE4B57E
:040A1A005C02055D18
:0A0A1E008557828558837420F0127A
:060A280008C2855C828516
:090A2E005D837420F0055CE4B561
:040A37005C02055DFB
:0A0A3B008557828558837420F0125D
:060A450008C2855C8285F9
:090A4B005D837420F0055CE4B544
:040A54005C02055DDE
:0A0A5800855782855883744FF01211
:060A620008C2855C8285DC
:090A68005D83744FF0055CE4B5F8
:040A71005C02055DC1
:0A0A7500855782855883744BF012F8
:060A7F0008C2855C8285BF
:090A85005D83744BF0055CE4B5DF
:040A8E005C02055DA4
:0A0A92008557828558837420F01206
:060A9C0008C2855C8285A2
:090AA2005D837420F0055CE4B5ED
:040AAB005C02055D87
:070AAF00121061E4F53EF5B1
:040AB6003F1208C221
:0A0ABA007418B53E06E4B53F028053
:010AC400161B
:070AC500053EE4B53E020509
:010ACC003FEA
:0A0ACD008557828558837420F012CB
:040AD70008C280DFF2
:080ADB0074F9255F4002055F7C
:010AE30022F0
:070AE400755E00755C0075F2
:060AEB005D401208C28507
:090AF10057828558837445F01208
:060AFA0008C2855C828544
:090B00005D837445F0055CE4B569
:040B09005C02055D28
:0A0B0D008557828558837444F01266
:060B170008C2855C828526
:090B1D005D837444F0055CE4B54D
:040B26005C02055D0B
:0A0B2A008557828558837449F01244
:060B340008C2855C828509
:090B3A005D837449F0055CE4B52B
:040B43005C02055DEE
:0A0B47008557828558837454F0121C
:060B510008C2855C8285EC
:090B57005D837454F0055CE4B503
:040B60005C02055DD1
:0A0B64008557828558837420F01233
:060B6E0008C2855C8285CF
:090B74005D837420F0055CE4B51A
:040B7D005C02055DB4
:0A0B81008557828558837420F01216
:060B8B0008C2855C8285B2
:090B91005D837420F0055CE4B5FD
:040B9A005C02055D97
:0A0B9E008557828558837420F012F9
:060BA80008C2855C828595
:090BAE005D837420F0055CE4B5E0
:040BB7005C02055D7A
:0A0BBB008557828558837420F012DC
:060BC50008C2855C828578
:090BCB005D837420F0055CE4B5C3
:040BD4005C02055D5D
:0A0BD8008557828558837420F012BF
:060BE20008C2855C82855B
:090BE8005D837420F0055CE4B5A6
:040BF1005C02055D40
:0A0BF5008557828558837420F012A2
:060BFF0008C2855C82853E
:090C05005D837420F0055CE4B588
:040C0E005C02055D22
:0A0C12008557828558837420F01284
:060C1C0008C2855C828520
:090C22005D837420F0055CE4B56B
:040C2B005C02055D05
:0A0C2F008557828558837420F01267
:060C390008C2855C828503
:090C3F005D837420F0055CE4B54E
:040C48005C02055DE8
:0A0C4C008557828558837420F0124A
:060C560008C2855C8285E6
:090C5C005D837420F0055CE4B531
:040C65005C02055DCB
:0A0C6900855782855883744FF012FE
:060C730008C2855C8285C9
:090C79005D83744FF0055CE4B5E5
:040C82005C02055DAE
:0A0C8600855782855883744BF012E5
:060C900008C2855C8285AC
:090C96005D83744BF0055CE4B5CC
:040C9F005C02055D91
:0A0CA3008557828558837420F012F3
:060CAD0008C2855C82858F
:090CB3005D837420F0055CE4B5DA
:040CBC005C02055D74
:070CC000121061E4F53EF59E
:040CC7003F1208C20E
:0A0CCB007418B53E06E4B53F028040
:010CD5001608
:070CD600053EE4B53E0205F6
:010CDD003FD7
:0A0CDE008557828558837420F012B8
:040CE80008C280DFDF
:080CEC0074F9255F4002055F69
:010CF40022DD
:070CF500755C00755D4075A0
:060CFC005E001208C28533
:090D020057828558837453F012E6
:060D0B0008C2855C828530
:090D11005D837453F0055CE4B548
:040D1A005C02055D15
:0A0D1E008557828558837445F01252
:060D280008C2855C828513
:090D2E005D837445F0055CE4B539
:040D37005C02055DF8
:0A0D3B008557828558837454F01226
:060D450008C2855C8285F6
:090D4B005D837454F0055CE4B50D
:040D54005C02055DDB
:070D5800855782855883E5F1
:060D5F002FF01208C2850E
:060D65005C82855D83E560
:060D6B002FF0055CE4B569
:040D71005C02055DBE
:070D7500855782855883E5D4
:060D7C0030F01208C285F0
:060D82005C82855D83E543
:060D880030F0055CE4B54B
:040D8E005C02055DA1
:0A0D9200855782855883742EF012F5
:060D9C0008C2855C82859F
:090DA2005D83742EF0055CE4B5DC
:040DAB005C02055D84
:070DAF00855782855883E59A
:060DB60032F01208C285B4
:060DBC005C82855D83E509
:060DC20032F0055CE4B50F
:040DC8005C02055D67
:070DCC00855782855883E57D
:060DD30033F01208C28596
:060DD9005C82855D83E5EC
:060DDF0033F0055CE4B5F1
:040DE5005C02055D4A
:0A0DE900855782855883742EF0129E
:060DF30008C2855C828548
:090DF9005D83742EF0055CE4B585
:040E02005C02055D2C
:070E0600855782855883E542
:060E0D0035F01208C28559
:060E13005C82855D83E5B1
:060E190035F0055CE4B5B4
:040E1F005C02055D0F
:070E2300855782855883E525
:060E2A0036F01208C2853B
:060E30005C82855D83E594
:060E360036F0055CE4B596
:040E3C005C02055DF2
:0A0E40008557828558837420F01254
:060E4A0008C2855C8285F0
:090E50005D837420F0055CE4B53B
:040E59005C02055DD5
:0A0E5D008557828558837420F01237
:060E670008C2855C8285D3
:090E6D005D837420F0055CE4B51E
:040E76005C02055DB8
:0A0E7A00855782855883744FF012EB
:060E840008C2855C8285B6
:090E8A005D83744FF0055CE4B5D2
:040E93005C02055D9B
:0A0E9700855782855883744BF012D2
:060EA10008C2855C828599
:090EA7005D83744BF0055CE4B5B9
:040EB0005C02055D7E
:0A0EB4008557828558837420F0856D
:090EBE005C82855D837420F0055F
:060EC7005CE4B55C0205CD
:010ECD005DC7
:080ECE001208C2121061E4F5E4
:040ED6003EF53F1294
:020EDA0008C24C
:0A0EDC007418B53E06E4B53F02802D
:010EE60016F5
:070EE700053EE4B53E0205E3
:010EEE003FC4
:0A0EEF008557828558837420F012A5
:040EF90008C280DFCC
:080EFD0074F9255F4002055F56
:010F050022C9
:070F0600755C00755D40758C
:060F0D004000755E0012B9
:020F130008C212
:0A0F1500E540242CF88602BA2D02F4
:020F1F00801F31
:090F2100855C82855D83EAF00520
:060F2A005CE4B55C020569
:010F30005D63
:090F3100855782855883EAF0120D
:060F3A0008C2054080D54D
:070F4000740DB54002802191
:0A0F4700855C82855D837420F0054F
:060F51005CE4B55C020542
:010F57005D3C
:0A0F58008557828558837420F0123B
:060F620008C2054080D822
:0A0F6800855C82855D837445F00509
:060F72005CE4B55C020521
:010F78005D1B
:0A0F7900855C82855D837452F005EB
:060F83005CE4B55C020510
:010F89005D0A
:0A0F8A00855C82855D837452F005DA
:060F94005CE4B55C0205FF
:010F9A005DF9
:0A0F9B008557828558837445F012D3
:060FA50008C28557828599
:090FAB0058837452F01208C2854B
:090FB40057828558837452F01233
:070FBD0008C2121061E4F507
:030FC4003EF53FB8
:0A0FC7007418B53E06E4B53F028041
:010FD1001609
:070FD200053EE4B53E0205F7
:010FD9003FD8
:0A0FDA008557828558837420F012B9
:040FE40008C280DFE0
:080FE80074F9255F4002055F6A
:010FF00022DE
:0A0FF100E55E75F010A42410F55C15
:0A0FFB00744035F0F55D7410255CBC
:07100500FAE4355DFB8A608F
:08100C00E55CFAB56002801EEC
:061014001208C2AA57AB4E
:05101A0058855C828591
:0A101F005D83E0FC8A828B83F005FC
:061029005CE4B55CDE058D
:03102F005D80DA07
:05103200E4F53EF53F6E
:0A1037007418B53E06E4B53F0280D0
:011041001698
:07104200053EE4B53E020586
:011049003F67
:07104A001208C285578285E0
:0710510058837420F080DFDA
:07105800055CE4B55C020534
:01105F005D33
:01106000226D
:07106100756209755C8075E2
:021068005D40E9
:08106A00AA621562EA60387504
:0210720061100B
:0A107400AA611561EA6020741025DE
:07107E005CFAE4355DFB851F
:0A1085005C82855D83E0FC8A828BAB
:09108F0083F0055CE4B55CDD05AD
:031098005D80D99F
:07109B00E55C24E0F55CE5D3
:0710A2005D34FFF55D80C124
:0810A9007410255CF55CE435D0
:0410B1005DF55D226A
:0A10B9003F065B4F666D7D077F6FF9
:06005A00E47801F6D8FD78
:080038007900E94400601B7A25
:05004000009010C378E0
:030045000075A0A3
:0A00480000E493F2A308B8000205DB
:08005200A0D9F4DAF275A0FF59
:080060007800E84400600A7911
:030068000075A080
:06006B0000E4F309D8FCDB
:080071007800E84400600C79FE
:0B00790000900000E4F0A3D8FCD9FACE
:03002B0075816577
:0A002E001210B5E5826003020026FF
:0410B500758200221E
:00000001FF
